{
  "transactions": [
    {
      "hash": "0x4e67d0190208f89faf6a23f3e29bf01cd4c8ea5213afbf62cc6034b35f0dd4ca",
      "transactionType": "CALL",
      "contractName": null,
      "contractAddress": "0x1f0c36004b26dbffc92058c1e42622e048284683",
      "function": "createPumpToken(string,string,uint32)",
      "arguments": [
        "PumpToken1",
        "Pump1",
        "100000"
      ],
      "transaction": {
        "from": "0xeb5491c015b73c3b86f4b4a7e8982d97ec4628ff",
        "to": "0x1f0c36004b26dbffc92058c1e42622e048284683",
        "gas": "0x75257",
        "value": "0x0",
        "input": "0x9743372a000000000000000000000000000000000000000000000000000000000000006000000000000000000000000000000000000000000000000000000000000000a000000000000000000000000000000000000000000000000000000000000186a0000000000000000000000000000000000000000000000000000000000000000a50756d70546f6b656e3100000000000000000000000000000000000000000000000000000000000000000000000000000000000000000000000000000000000550756d7031000000000000000000000000000000000000000000000000000000",
        "nonce": "0x9",
        "chainId": "0xaa36a7"
      },
      "additionalContracts": [
        {
          "transactionType": "CREATE",
          "address": "0x9abad5411841f9d225859c6cacbd225641e2f199",
          "initCode": "0x60806040526040516103d03803806103d08339810160408190526100229161023c565b61002c8282610033565b5050610321565b61003c82610091565b6040516001600160a01b038316907fbc7cd75a20ee27fd9adebab32041f755214dbc6bffa90cc0225b39da2e5c2d3b905f90a280511561008557610080828261010c565b505050565b61008d61017f565b5050565b806001600160a01b03163b5f036100cb57604051634c9c8ce360e01b81526001600160a01b03821660048201526024015b60405180910390fd5b7f360894a13ba1a3210667c828492db98dca3e2076cc3735a920a3ca505d382bbc80546001600160a01b0319166001600160a01b0392909216919091179055565b60605f5f846001600160a01b031684604051610128919061030b565b5f60405180830381855af49150503d805f8114610160576040519150601f19603f3d011682016040523d82523d5f602084013e610165565b606091505b5090925090506101768583836101a0565b95945050505050565b341561019e5760405163b398979f60e01b815260040160405180910390fd5b565b6060826101b5576101b0826101ff565b6101f8565b81511580156101cc57506001600160a01b0384163b155b156101f557604051639996b31560e01b81526001600160a01b03851660048201526024016100c2565b50805b9392505050565b80511561020f5780518082602001fd5b60405163d6bda27560e01b815260040160405180910390fd5b634e487b7160e01b5f52604160045260245ffd5b5f5f6040838503121561024d575f5ffd5b82516001600160a01b0381168114610263575f5ffd5b60208401519092506001600160401b0381111561027e575f5ffd5b8301601f8101851361028e575f5ffd5b80516001600160401b038111156102a7576102a7610228565b604051601f8201601f19908116603f011681016001600160401b03811182821017156102d5576102d5610228565b6040528181528282016020018710156102ec575f5ffd5b8160208401602083015e5f602083830101528093505050509250929050565b5f82518060208501845e5f920191825250919050565b60a38061032d5f395ff3fe6080604052600a600c565b005b60186014601a565b6050565b565b5f604b7f360894a13ba1a3210667c828492db98dca3e2076cc3735a920a3ca505d382bbc546001600160a01b031690565b905090565b365f5f375f5f365f845af43d5f5f3e8080156069573d5ff35b3d5ffdfea26469706673582212205259876e043d15d023115ef7b0ffced3edfcc7509615f465f142b3f08291d94164736f6c634300081b00330000000000000000000000002770dc6f05664aba1713b272e4f8cee6f21580cb0000000000000000000000000000000000000000000000000000000000000040000000000000000000000000000000000000000000000000000000000000012438df61fd00000000000000000000000000000000000000000000000000000000000000a000000000000000000000000000000000000000000000000000000000000000e00000000000000000000000001f0c36004b26dbffc92058c1e42622e048284683000000000000000000000000c532a74256d3db42d0bf7a0400fefdbad769400800000000000000000000000000000000000000000000000000000000000186a0000000000000000000000000000000000000000000000000000000000000000a50756d70546f6b656e3100000000000000000000000000000000000000000000000000000000000000000000000000000000000000000000000000000000000550756d703100000000000000000000000000000000000000000000000000000000000000000000000000000000000000000000000000000000000000"
        }
      ],
      "isFixedGasLimit": false
    }
  ],
  "receipts": [
    {
      "status": "0x1",
      "cumulativeGasUsed": "0x3e415b",
      "logs": [
        {
          "address": "0x9abad5411841f9d225859c6cacbd225641e2f199",
          "topics": [
            "0xbc7cd75a20ee27fd9adebab32041f755214dbc6bffa90cc0225b39da2e5c2d3b",
            "0x0000000000000000000000002770dc6f05664aba1713b272e4f8cee6f21580cb"
          ],
          "data": "0x",
          "blockHash": "0x18b7e2b9efca7fd0bb7d54b145b5c51b34091484b68029742dc3c36dd739b4e4",
          "blockNumber": "0x69803e",
          "transactionHash": "0x4e67d0190208f89faf6a23f3e29bf01cd4c8ea5213afbf62cc6034b35f0dd4ca",
          "transactionIndex": "0x31",
          "logIndex": "0x41",
          "removed": false
        },
        {
          "address": "0x9abad5411841f9d225859c6cacbd225641e2f199",
          "topics": [
            "0x8be0079c531659141344cd1fd0a4f28419497f9722a3daafe3b4186f6b6457e0",
            "0x0000000000000000000000000000000000000000000000000000000000000000",
            "0x0000000000000000000000001f0c36004b26dbffc92058c1e42622e048284683"
          ],
          "data": "0x",
          "blockHash": "0x18b7e2b9efca7fd0bb7d54b145b5c51b34091484b68029742dc3c36dd739b4e4",
          "blockNumber": "0x69803e",
          "transactionHash": "0x4e67d0190208f89faf6a23f3e29bf01cd4c8ea5213afbf62cc6034b35f0dd4ca",
          "transactionIndex": "0x31",
          "logIndex": "0x42",
          "removed": false
        },
        {
          "address": "0x9abad5411841f9d225859c6cacbd225641e2f199",
          "topics": [
            "0xc7f505b2f371ae2175ee4913f4499e1f2633a7b5936321eed1cdaeb6115181d2"
          ],
          "data": "0x0000000000000000000000000000000000000000000000000000000000000001",
          "blockHash": "0x18b7e2b9efca7fd0bb7d54b145b5c51b34091484b68029742dc3c36dd739b4e4",
          "blockNumber": "0x69803e",
          "transactionHash": "0x4e67d0190208f89faf6a23f3e29bf01cd4c8ea5213afbf62cc6034b35f0dd4ca",
          "transactionIndex": "0x31",
          "logIndex": "0x43",
          "removed": false
        },
        {
          "address": "0x1f0c36004b26dbffc92058c1e42622e048284683",
          "topics": [
            "0x5d762f4157f2f30e37945811068247db4c57111102d0f44d2e9d16a792d7496f",
            "0x000000000000000000000000eb5491c015b73c3b86f4b4a7e8982d97ec4628ff"
          ],
          "data": "0x0000000000000000000000009abad5411841f9d225859c6cacbd225641e2f199",
          "blockHash": "0x18b7e2b9efca7fd0bb7d54b145b5c51b34091484b68029742dc3c36dd739b4e4",
          "blockNumber": "0x69803e",
          "transactionHash": "0x4e67d0190208f89faf6a23f3e29bf01cd4c8ea5213afbf62cc6034b35f0dd4ca",
          "transactionIndex": "0x31",
          "logIndex": "0x44",
          "removed": false
        }
      ],
      "logsBloom": "0x00000000000000000010000000000000400000000000204000800000000000000000000000000000400000000000000000000000000000000000000000000000000000400004000000000000000002000001000000000000000000000000000000200010020002000000000000000800000000000000000000010000000000400000000000000000000800000000000000000020000080000000000000000000000000040000000000000000000000000800000000000000000000000000000000000120000000000000000000000000000000000004000000000800000020000000000000000000000000000000000000010000000000000000000000000100",
      "type": "0x0",
      "transactionHash": "0x4e67d0190208f89faf6a23f3e29bf01cd4c8ea5213afbf62cc6034b35f0dd4ca",
      "transactionIndex": "0x31",
      "blockHash": "0x18b7e2b9efca7fd0bb7d54b145b5c51b34091484b68029742dc3c36dd739b4e4",
      "blockNumber": "0x69803e",
      "gasUsed": "0x5019a",
      "effectiveGasPrice": "0x1eb12e0b",
      "from": "0xeb5491c015b73c3b86f4b4a7e8982d97ec4628ff",
      "to": "0x1f0c36004b26dbffc92058c1e42622e048284683",
      "contractAddress": null
    }
  ],
  "libraries": [],
  "pending": [],
  "returns": {},
  "timestamp": 1729483419,
  "chain": 11155111,
  "commit": "d1f21d1"
}